{
  "_format": "hh-sol-artifact-1",
  "contractName": "SignedMinting",
  "sourceName": "contracts/SignedMinting.sol",
  "abi": [
    {
      "inputs": [
        {
          "internalType": "address",
          "name": "_signer",
          "type": "address"
        }
      ],
      "stateMutability": "nonpayable",
      "type": "constructor"
    },
    {
      "inputs": [],
      "name": "asciiSender",
      "outputs": [
        {
          "internalType": "string",
          "name": "",
          "type": "string"
        }
      ],
      "stateMutability": "view",
      "type": "function"
    },
    {
      "inputs": [],
      "name": "generateSenderHash",
      "outputs": [
        {
          "internalType": "bytes32",
          "name": "",
          "type": "bytes32"
        }
      ],
      "stateMutability": "view",
      "type": "function"
    },
    {
      "inputs": [
        {
          "internalType": "bytes",
          "name": "signature",
          "type": "bytes"
        }
      ],
      "name": "recover",
      "outputs": [
        {
          "internalType": "address",
          "name": "",
          "type": "address"
        }
      ],
      "stateMutability": "view",
      "type": "function"
    },
    {
      "inputs": [
        {
          "internalType": "bytes",
          "name": "signature",
          "type": "bytes"
        }
      ],
      "name": "recoveredAddress",
      "outputs": [
        {
          "internalType": "bytes",
          "name": "",
          "type": "bytes"
        }
      ],
      "stateMutability": "view",
      "type": "function"
    },
    {
      "inputs": [],
      "name": "signer",
      "outputs": [
        {
          "internalType": "address",
          "name": "",
          "type": "address"
        }
      ],
      "stateMutability": "view",
      "type": "function"
    },
    {
      "inputs": [
        {
          "internalType": "string",
          "name": "s",
          "type": "string"
        }
      ],
      "name": "toEthSignedMessageHash",
      "outputs": [
        {
          "internalType": "bytes32",
          "name": "",
          "type": "bytes32"
        }
      ],
      "stateMutability": "pure",
      "type": "function"
    }
  ],
  "bytecode": "0x608060405234801561001057600080fd5b50604051610cb1380380610cb183398101604081905261002f91610054565b600080546001600160a01b0319166001600160a01b0392909216919091179055610082565b600060208284031215610065578081fd5b81516001600160a01b038116811461007b578182fd5b9392505050565b610c20806100916000396000f3fe608060405234801561001057600080fd5b50600436106100625760003560e01c8063238ac93314610067578063346d14ae1461009757806340838f74146100ac5780639c6add8e146100c2578063a4a1edb1146100d5578063d720f9da146100e8575b600080fd5b60005461007a906001600160a01b031681565b6040516001600160a01b0390911681526020015b60405180910390f35b61009f6100fb565b60405161008e9190610957565b6100b461010b565b60405190815260200161008e565b61009f6100d036600461088d565b610118565b61007a6100e336600461088d565b610156565b6100b46100f636600461088d565b61017a565b6060610106336101ba565b905090565b60006101066100f66100fb565b6060600061012583610156565b6040805160609290921b6001600160601b031916602083015280516014818403018152603490920190529392505050565b6000806101646100f66100fb565b90506000610172828561031d565b949350505050565b60008082905061018a8151610343565b8160405160200161019c9291906108fe565b60405160208183030381529060405280519060200120915050919050565b60408051602880825260608281019093526000919060208201818036833701905050905060005b60148110156103165760006101f7826013610b0f565b610202906008610acf565b61020d906002610a27565b610220906001600160a01b0387166109ae565b60f81b9050600060108260f81c61023791906109c2565b60f81b905060008160f81c601061024e9190610aee565b8360f81c61025c9190610b26565b60f81b905061026a8261045c565b85610276866002610acf565b8151811061029457634e487b7160e01b600052603260045260246000fd5b60200101906001600160f81b031916908160001a9053506102b48161045c565b856102c0866002610acf565b6102cb906001610971565b815181106102e957634e487b7160e01b600052603260045260246000fd5b60200101906001600160f81b031916908160001a905350505050808061030e90610b79565b9150506101e1565b5092915050565b600080600061032c8585610492565b9150915061033981610502565b5090505b92915050565b6060816103675750506040805180820190915260018152600360fc1b602082015290565b8160005b8115610391578061037b81610b79565b915061038a9050600a836109ae565b915061036b565b6000816001600160401b038111156103b957634e487b7160e01b600052604160045260246000fd5b6040519080825280601f01601f1916602001820160405280156103e3576020820181803683370190505b5090505b8415610172576103f8600183610b0f565b9150610405600a86610b94565b610410906030610971565b60f81b81838151811061043357634e487b7160e01b600052603260045260246000fd5b60200101906001600160f81b031916908160001a905350610455600a866109ae565b94506103e7565b6000600a60f883901c10156104835761047a60f883901c6030610989565b60f81b92915050565b61047a60f883901c6057610989565b6000808251604114156104c95760208301516040840151606085015160001a6104bd87828585610706565b945094505050506104fb565b8251604014156104f357602083015160408401516104e88683836107e9565b9350935050506104fb565b506000905060025b9250929050565b600081600481111561052457634e487b7160e01b600052602160045260246000fd5b141561052d5750565b600181600481111561054f57634e487b7160e01b600052602160045260246000fd5b141561059d5760405162461bcd60e51b815260206004820152601860248201527745434453413a20696e76616c6964207369676e617475726560401b60448201526064015b60405180910390fd5b60028160048111156105bf57634e487b7160e01b600052602160045260246000fd5b141561060d5760405162461bcd60e51b815260206004820152601f60248201527f45434453413a20696e76616c6964207369676e6174757265206c656e677468006044820152606401610594565b600381600481111561062f57634e487b7160e01b600052602160045260246000fd5b14156106885760405162461bcd60e51b815260206004820152602260248201527f45434453413a20696e76616c6964207369676e6174757265202773272076616c604482015261756560f01b6064820152608401610594565b60048160048111156106aa57634e487b7160e01b600052602160045260246000fd5b14156107035760405162461bcd60e51b815260206004820152602260248201527f45434453413a20696e76616c6964207369676e6174757265202776272076616c604482015261756560f01b6064820152608401610594565b50565b6000806fa2a8918ca85bafe22016d0b997e4df60600160ff1b0383111561073357506000905060036107e0565b8460ff16601b1415801561074b57508460ff16601c14155b1561075c57506000905060046107e0565b6040805160008082526020820180845289905260ff881692820192909252606081018690526080810185905260019060a0016020604051602081039080840390855afa1580156107b0573d6000803e3d6000fd5b5050604051601f1901519150506001600160a01b0381166107d9576000600192509250506107e0565b9150600090505b94509492505050565b6000806001600160ff1b03831660ff84901c601b0161080a87828885610706565b935093505050935093915050565b60006001600160401b038084111561083257610832610bd4565b604051601f8501601f19908116603f0116810190828211818310171561085a5761085a610bd4565b8160405280935085815286868601111561087357600080fd5b858560208301376000602087830101525050509392505050565b60006020828403121561089e578081fd5b81356001600160401b038111156108b3578182fd5b8201601f810184136108c3578182fd5b61017284823560208401610818565b600081518084526108ea816020860160208601610b49565b601f01601f19169290920160200192915050565b790ca2ba3432b932bab69029b4b3b732b21026b2b9b9b0b3b29d0560311b8152825160009061093481601a850160208801610b49565b83519083019061094b81601a840160208801610b49565b01601a01949350505050565b60208152600061096a60208301846108d2565b9392505050565b6000821982111561098457610984610ba8565b500190565b600060ff821660ff84168060ff038211156109a6576109a6610ba8565b019392505050565b6000826109bd576109bd610bbe565b500490565b600060ff8316806109d5576109d5610bbe565b8060ff84160491505092915050565b600181815b80851115610a1f578160001904821115610a0557610a05610ba8565b80851615610a1257918102915b93841c93908002906109e9565b509250929050565b600061096a8383600082610a3d5750600161033d565b81610a4a5750600061033d565b8160018114610a605760028114610a6a57610a86565b600191505061033d565b60ff841115610a7b57610a7b610ba8565b50506001821b61033d565b5060208310610133831016604e8410600b8410161715610aa9575081810a61033d565b610ab383836109e4565b8060001904821115610ac757610ac7610ba8565b029392505050565b6000816000190483118215151615610ae957610ae9610ba8565b500290565b600060ff821660ff84168160ff0481118215151615610ac757610ac7610ba8565b600082821015610b2157610b21610ba8565b500390565b600060ff821660ff841680821015610b4057610b40610ba8565b90039392505050565b60005b83811015610b64578181015183820152602001610b4c565b83811115610b73576000848401525b50505050565b6000600019821415610b8d57610b8d610ba8565b5060010190565b600082610ba357610ba3610bbe565b500690565b634e487b7160e01b600052601160045260246000fd5b634e487b7160e01b600052601260045260246000fd5b634e487b7160e01b600052604160045260246000fdfea2646970667358221220b68302c6f8b370e8c468256c3fa3be6518de749c99fed3be1cd5dde81ece04a964736f6c63430008040033",
  "linkReferences": {},
  "deployedLinkReferences": {}
}